{
  "contractName": "ERC20Factory",
  "abi": [
    {
      "anonymous": false,
      "inputs": [
        {
          "indexed": true,
          "internalType": "address",
          "name": "tokenAddress",
          "type": "address"
        },
        {
          "indexed": false,
          "internalType": "string",
          "name": "symbol",
          "type": "string"
        },
        {
          "indexed": true,
          "internalType": "uint256",
          "name": "cap",
          "type": "uint256"
        }
      ],
      "name": "ERC20TokenCreated",
      "type": "event"
    },
    {
      "inputs": [
        {
          "internalType": "string",
          "name": "name",
          "type": "string"
        },
        {
          "internalType": "string",
          "name": "symbol",
          "type": "string"
        },
        {
          "internalType": "uint256",
          "name": "cap",
          "type": "uint256"
        }
      ],
      "name": "deployNewERC20Token",
      "outputs": [
        {
          "internalType": "address",
          "name": "",
          "type": "address"
        }
      ],
      "stateMutability": "nonpayable",
      "type": "function"
    },
    {
      "inputs": [
        {
          "internalType": "string",
          "name": "name",
          "type": "string"
        },
        {
          "internalType": "string",
          "name": "symbol",
          "type": "string"
        }
      ],
      "name": "deployNewERC721Token",
      "outputs": [
        {
          "internalType": "address",
          "name": "",
          "type": "address"
        }
      ],
      "stateMutability": "nonpayable",
      "type": "function"
    }
  ],
  "bytecode": "0x608060405234801561001057600080fd5b506137f3806100206000396000f3fe60806040523480156200001157600080fd5b50600436106200003a5760003560e01c806353ab80be146200003f578063caa666cc1462000075575b600080fd5b6200005d600480360381019062000057919062000224565b620000ab565b6040516200006c91906200030d565b60405180910390f35b6200009360048036038101906200008d919062000487565b62000151565b604051620000a291906200030d565b60405180910390f35b6000808686868686604051620000c19062000159565b620000d195949392919062000561565b604051809103906000f080158015620000ee573d6000803e3d6000fd5b509050828173ffffffffffffffffffffffffffffffffffffffff167fbe336cf24f327743718388b6dd5e8ae33628db8fa5d9ac7a8d5514b86f7701cb87876040516200013c929190620005b0565b60405180910390a38091505095945050505050565b600092915050565b6131e780620005d783390190565b6000604051905090565b600080fd5b600080fd5b600080fd5b600080fd5b600080fd5b60008083601f840112620001a357620001a26200017b565b5b8235905067ffffffffffffffff811115620001c357620001c262000180565b5b602083019150836001820283011115620001e257620001e162000185565b5b9250929050565b6000819050919050565b620001fe81620001e9565b81146200020a57600080fd5b50565b6000813590506200021e81620001f3565b92915050565b60008060008060006060868803121562000243576200024262000171565b5b600086013567ffffffffffffffff81111562000264576200026362000176565b5b62000272888289016200018a565b9550955050602086013567ffffffffffffffff81111562000298576200029762000176565b5b620002a6888289016200018a565b93509350506040620002bb888289016200020d565b9150509295509295909350565b600073ffffffffffffffffffffffffffffffffffffffff82169050919050565b6000620002f582620002c8565b9050919050565b6200030781620002e8565b82525050565b6000602082019050620003246000830184620002fc565b92915050565b600080fd5b6000601f19601f8301169050919050565b7f4e487b7100000000000000000000000000000000000000000000000000000000600052604160045260246000fd5b6200037a826200032f565b810181811067ffffffffffffffff821117156200039c576200039b62000340565b5b80604052505050565b6000620003b162000167565b9050620003bf82826200036f565b919050565b600067ffffffffffffffff821115620003e257620003e162000340565b5b620003ed826200032f565b9050602081019050919050565b82818337600083830152505050565b6000620004206200041a84620003c4565b620003a5565b9050828152602081018484840111156200043f576200043e6200032a565b5b6200044c848285620003fa565b509392505050565b600082601f8301126200046c576200046b6200017b565b5b81356200047e84826020860162000409565b91505092915050565b60008060408385031215620004a157620004a062000171565b5b600083013567ffffffffffffffff811115620004c257620004c162000176565b5b620004d08582860162000454565b925050602083013567ffffffffffffffff811115620004f457620004f362000176565b5b620005028582860162000454565b9150509250929050565b600082825260208201905092915050565b60006200052b83856200050c565b93506200053a838584620003fa565b62000545836200032f565b840190509392505050565b6200055b81620001e9565b82525050565b600060608201905081810360008301526200057e8187896200051d565b90508181036020830152620005958185876200051d565b9050620005a6604083018462000550565b9695505050505050565b60006020820190508181036000830152620005cd8184866200051d565b9050939250505056fe60a06040523480156200001157600080fd5b50604051620031e7380380620031e7833981810160405281019062000037919062000647565b8282816005908051906020019062000051929190620003bf565b5080600690805190602001906200006a929190620003bf565b50505060008111620000b3576040517f08c379a0000000000000000000000000000000000000000000000000000000008152600401620000aa9062000742565b60405180910390fd5b8060808181525050620000df6000801b620000d36200012960201b60201c565b6200013160201b60201c565b620001207f9f2df0fed2c77648de5860a4cc508cd0818c85b8b8a1ab4ceeef8d981c8956a6620001146200012960201b60201c565b6200013160201b60201c565b505050620007c9565b600033905090565b6200014382826200014760201b60201c565b5050565b6200015e82826200018f60201b62000d6c1760201c565b6200018a81600160008581526020019081526020016000206200028060201b62000e4c1790919060201c565b505050565b620001a18282620002b860201b60201c565b6200027c57600160008084815260200190815260200160002060000160008373ffffffffffffffffffffffffffffffffffffffff1673ffffffffffffffffffffffffffffffffffffffff16815260200190815260200160002060006101000a81548160ff021916908315150217905550620002216200012960201b60201c565b73ffffffffffffffffffffffffffffffffffffffff168173ffffffffffffffffffffffffffffffffffffffff16837f2f8788117e7eff1d82e926ec794901d17c78024a50270940304540a733656f0d60405160405180910390a45b5050565b6000620002b0836000018373ffffffffffffffffffffffffffffffffffffffff1660001b6200032260201b60201c565b905092915050565b600080600084815260200190815260200160002060000160008373ffffffffffffffffffffffffffffffffffffffff1673ffffffffffffffffffffffffffffffffffffffff16815260200190815260200160002060009054906101000a900460ff16905092915050565b60006200033683836200039c60201b60201c565b6200039157826000018290806001815401808255809150506001900390600052602060002001600090919091909150558260000180549050836001016000848152602001908152602001600020819055506001905062000396565b600090505b92915050565b600080836001016000848152602001908152602001600020541415905092915050565b828054620003cd9062000793565b90600052602060002090601f016020900481019282620003f157600085556200043d565b82601f106200040c57805160ff19168380011785556200043d565b828001600101855582156200043d579182015b828111156200043c5782518255916020019190600101906200041f565b5b5090506200044c919062000450565b5090565b5b808211156200046b57600081600090555060010162000451565b5090565b6000604051905090565b600080fd5b600080fd5b600080fd5b600080fd5b6000601f19601f8301169050919050565b7f4e487b7100000000000000000000000000000000000000000000000000000000600052604160045260246000fd5b620004d8826200048d565b810181811067ffffffffffffffff82111715620004fa57620004f96200049e565b5b80604052505050565b60006200050f6200046f565b90506200051d8282620004cd565b919050565b600067ffffffffffffffff82111562000540576200053f6200049e565b5b6200054b826200048d565b9050602081019050919050565b60005b83811015620005785780820151818401526020810190506200055b565b8381111562000588576000848401525b50505050565b6000620005a56200059f8462000522565b62000503565b905082815260208101848484011115620005c457620005c362000488565b5b620005d184828562000558565b509392505050565b600082601f830112620005f157620005f062000483565b5b8151620006038482602086016200058e565b91505092915050565b6000819050919050565b62000621816200060c565b81146200062d57600080fd5b50565b600081519050620006418162000616565b92915050565b60008060006060848603121562000663576200066262000479565b5b600084015167ffffffffffffffff8111156200068457620006836200047e565b5b6200069286828701620005d9565b935050602084015167ffffffffffffffff811115620006b657620006b56200047e565b5b620006c486828701620005d9565b9250506040620006d78682870162000630565b9150509250925092565b600082825260208201905092915050565b7f45524332304361707065643a2063617020697320300000000000000000000000600082015250565b60006200072a601583620006e1565b91506200073782620006f2565b602082019050919050565b600060208201905081810360008301526200075d816200071b565b9050919050565b7f4e487b7100000000000000000000000000000000000000000000000000000000600052602260045260246000fd5b60006002820490506001821680620007ac57607f821691505b60208210811415620007c357620007c262000764565b5b50919050565b608051612a02620007e560003960006107900152612a026000f3fe608060405234801561001057600080fd5b50600436106101585760003560e01c806370a08231116100c3578063a9059cbb1161007c578063a9059cbb14610415578063a9e422d714610445578063ca15c87314610475578063d5391393146104a5578063d547741f146104c3578063dd62ed3e146104df57610158565b806370a08231146103195780639010d07c1461034957806391d148541461037957806395d89b41146103a9578063a217fddf146103c7578063a457c2d7146103e557610158565b80632f2ff15d116101155780632f2ff15d14610259578063313ce56714610275578063355274ea1461029357806336568abe146102b157806339509351146102cd57806340c10f19146102fd57610158565b806301ffc9a71461015d57806306fdde031461018d578063095ea7b3146101ab57806318160ddd146101db57806323b872dd146101f9578063248a9ca314610229575b600080fd5b61017760048036038101906101729190611be3565b61050f565b6040516101849190611c2b565b60405180910390f35b610195610589565b6040516101a29190611cdf565b60405180910390f35b6101c560048036038101906101c09190611d95565b61061b565b6040516101d29190611c2b565b60405180910390f35b6101e3610639565b6040516101f09190611de4565b60405180910390f35b610213600480360381019061020e9190611dff565b610643565b6040516102209190611c2b565b60405180910390f35b610243600480360381019061023e9190611e88565b61073b565b6040516102509190611ec4565b60405180910390f35b610273600480360381019061026e9190611edf565b61075a565b005b61027d610783565b60405161028a9190611f3b565b60405180910390f35b61029b61078c565b6040516102a89190611de4565b60405180910390f35b6102cb60048036038101906102c69190611edf565b6107b4565b005b6102e760048036038101906102e29190611d95565b610837565b6040516102f49190611c2b565b60405180910390f35b61031760048036038101906103129190611d95565b6108e3565b005b610333600480360381019061032e9190611f56565b6109bd565b6040516103409190611de4565b60405180910390f35b610363600480360381019061035e9190611f83565b610a06565b6040516103709190611fd2565b60405180910390f35b610393600480360381019061038e9190611edf565b610a35565b6040516103a09190611c2b565b60405180910390f35b6103b1610a9f565b6040516103be9190611cdf565b60405180910390f35b6103cf610b31565b6040516103dc9190611ec4565b60405180910390f35b6103ff60048036038101906103fa9190611d95565b610b38565b60405161040c9190611c2b565b60405180910390f35b61042f600480360381019061042a9190611d95565b610c23565b60405161043c9190611c2b565b60405180910390f35b61045f600480360381019061045a9190611f56565b610c41565b60405161046c9190611c2b565b60405180910390f35b61048f600480360381019061048a9190611e88565b610c74565b60405161049c9190611de4565b60405180910390f35b6104ad610c98565b6040516104ba9190611ec4565b60405180910390f35b6104dd60048036038101906104d89190611edf565b610cbc565b005b6104f960048036038101906104f49190611fed565b610ce5565b6040516105069190611de4565b60405180910390f35b60007f5a05180f000000000000000000000000000000000000000000000000000000007bffffffffffffffffffffffffffffffffffffffffffffffffffffffff1916827bffffffffffffffffffffffffffffffffffffffffffffffffffffffff19161480610582575061058182610e7c565b5b9050919050565b6060600580546105989061205c565b80601f01602080910402602001604051908101604052809291908181526020018280546105c49061205c565b80156106115780601f106105e657610100808354040283529160200191610611565b820191906000526020600020905b8154815290600101906020018083116105f457829003601f168201915b5050505050905090565b600061062f610628610ef6565b8484610efe565b6001905092915050565b6000600454905090565b60006106508484846110c9565b6000600360008673ffffffffffffffffffffffffffffffffffffffff1673ffffffffffffffffffffffffffffffffffffffff168152602001908152602001600020600061069b610ef6565b73ffffffffffffffffffffffffffffffffffffffff1673ffffffffffffffffffffffffffffffffffffffff1681526020019081526020016000205490508281101561071b576040517f08c379a000000000000000000000000000000000000000000000000000000000815260040161071290612100565b60405180910390fd5b61072f85610727610ef6565b858403610efe565b60019150509392505050565b6000806000838152602001908152602001600020600101549050919050565b6107638261073b565b6107748161076f610ef6565b61134d565b61077e83836113ea565b505050565b60006012905090565b60007f0000000000000000000000000000000000000000000000000000000000000000905090565b6107bc610ef6565b73ffffffffffffffffffffffffffffffffffffffff168173ffffffffffffffffffffffffffffffffffffffff1614610829576040517f08c379a000000000000000000000000000000000000000000000000000000000815260040161082090612192565b60405180910390fd5b610833828261141e565b5050565b60006108d9610844610ef6565b848460036000610852610ef6565b73ffffffffffffffffffffffffffffffffffffffff1673ffffffffffffffffffffffffffffffffffffffff16815260200190815260200160002060008873ffffffffffffffffffffffffffffffffffffffff1673ffffffffffffffffffffffffffffffffffffffff168152602001908152602001600020546108d491906121e1565b610efe565b6001905092915050565b6109147f9f2df0fed2c77648de5860a4cc508cd0818c85b8b8a1ab4ceeef8d981c8956a661090f610ef6565b610a35565b610953576040517f08c379a000000000000000000000000000000000000000000000000000000000815260040161094a906122a9565b60405180910390fd5b61095b61078c565b81610964610639565b61096e91906121e1565b11156109af576040517f08c379a00000000000000000000000000000000000000000000000000000000081526004016109a690612315565b60405180910390fd5b6109b98282611452565b5050565b6000600260008373ffffffffffffffffffffffffffffffffffffffff1673ffffffffffffffffffffffffffffffffffffffff168152602001908152602001600020549050919050565b6000610a2d82600160008681526020019081526020016000206115b390919063ffffffff16565b905092915050565b600080600084815260200190815260200160002060000160008373ffffffffffffffffffffffffffffffffffffffff1673ffffffffffffffffffffffffffffffffffffffff16815260200190815260200160002060009054906101000a900460ff16905092915050565b606060068054610aae9061205c565b80601f0160208091040260200160405190810160405280929190818152602001828054610ada9061205c565b8015610b275780601f10610afc57610100808354040283529160200191610b27565b820191906000526020600020905b815481529060010190602001808311610b0a57829003601f168201915b5050505050905090565b6000801b81565b60008060036000610b47610ef6565b73ffffffffffffffffffffffffffffffffffffffff1673ffffffffffffffffffffffffffffffffffffffff16815260200190815260200160002060008573ffffffffffffffffffffffffffffffffffffffff1673ffffffffffffffffffffffffffffffffffffffff16815260200190815260200160002054905082811015610c04576040517f08c379a0000000000000000000000000000000000000000000000000000000008152600401610bfb906123a7565b60405180910390fd5b610c18610c0f610ef6565b85858403610efe565b600191505092915050565b6000610c37610c30610ef6565b84846110c9565b6001905092915050565b6000610c6d7f9f2df0fed2c77648de5860a4cc508cd0818c85b8b8a1ab4ceeef8d981c8956a683610a35565b9050919050565b6000610c91600160008481526020019081526020016000206115cd565b9050919050565b7f9f2df0fed2c77648de5860a4cc508cd0818c85b8b8a1ab4ceeef8d981c8956a681565b610cc58261073b565b610cd681610cd1610ef6565b61134d565b610ce0838361141e565b505050565b6000600360008473ffffffffffffffffffffffffffffffffffffffff1673ffffffffffffffffffffffffffffffffffffffff16815260200190815260200160002060008373ffffffffffffffffffffffffffffffffffffffff1673ffffffffffffffffffffffffffffffffffffffff16815260200190815260200160002054905092915050565b610d768282610a35565b610e4857600160008084815260200190815260200160002060000160008373ffffffffffffffffffffffffffffffffffffffff1673ffffffffffffffffffffffffffffffffffffffff16815260200190815260200160002060006101000a81548160ff021916908315150217905550610ded610ef6565b73ffffffffffffffffffffffffffffffffffffffff168173ffffffffffffffffffffffffffffffffffffffff16837f2f8788117e7eff1d82e926ec794901d17c78024a50270940304540a733656f0d60405160405180910390a45b5050565b6000610e74836000018373ffffffffffffffffffffffffffffffffffffffff1660001b6115e2565b905092915050565b60007f7965db0b000000000000000000000000000000000000000000000000000000007bffffffffffffffffffffffffffffffffffffffffffffffffffffffff1916827bffffffffffffffffffffffffffffffffffffffffffffffffffffffff19161480610eef5750610eee82611652565b5b9050919050565b600033905090565b600073ffffffffffffffffffffffffffffffffffffffff168373ffffffffffffffffffffffffffffffffffffffff161415610f6e576040517f08c379a0000000000000000000000000000000000000000000000000000000008152600401610f6590612439565b60405180910390fd5b600073ffffffffffffffffffffffffffffffffffffffff168273ffffffffffffffffffffffffffffffffffffffff161415610fde576040517f08c379a0000000000000000000000000000000000000000000000000000000008152600401610fd5906124cb565b60405180910390fd5b80600360008573ffffffffffffffffffffffffffffffffffffffff1673ffffffffffffffffffffffffffffffffffffffff16815260200190815260200160002060008473ffffffffffffffffffffffffffffffffffffffff1673ffffffffffffffffffffffffffffffffffffffff168152602001908152602001600020819055508173ffffffffffffffffffffffffffffffffffffffff168373ffffffffffffffffffffffffffffffffffffffff167f8c5be1e5ebec7d5bd14f71427d1e84f3dd0314c0f7b2291e5b200ac8c7c3b925836040516110bc9190611de4565b60405180910390a3505050565b600073ffffffffffffffffffffffffffffffffffffffff168373ffffffffffffffffffffffffffffffffffffffff161415611139576040517f08c379a00000000000000000000000000000000000000000000000000000000081526004016111309061255d565b60405180910390fd5b600073ffffffffffffffffffffffffffffffffffffffff168273ffffffffffffffffffffffffffffffffffffffff1614156111a9576040517f08c379a00000000000000000000000000000000000000000000000000000000081526004016111a0906125ef565b60405180910390fd5b6111b48383836116bc565b6000600260008573ffffffffffffffffffffffffffffffffffffffff1673ffffffffffffffffffffffffffffffffffffffff1681526020019081526020016000205490508181101561123b576040517f08c379a000000000000000000000000000000000000000000000000000000000815260040161123290612681565b60405180910390fd5b818103600260008673ffffffffffffffffffffffffffffffffffffffff1673ffffffffffffffffffffffffffffffffffffffff1681526020019081526020016000208190555081600260008573ffffffffffffffffffffffffffffffffffffffff1673ffffffffffffffffffffffffffffffffffffffff16815260200190815260200160002060008282546112d091906121e1565b925050819055508273ffffffffffffffffffffffffffffffffffffffff168473ffffffffffffffffffffffffffffffffffffffff167fddf252ad1be2c89b69c2b068fc378daa952ba7f163c4a11628f55a4df523b3ef846040516113349190611de4565b60405180910390a36113478484846116c1565b50505050565b6113578282610a35565b6113e65761137c8173ffffffffffffffffffffffffffffffffffffffff1660146116c6565b61138a8360001c60206116c6565b60405160200161139b929190612775565b6040516020818303038152906040526040517f08c379a00000000000000000000000000000000000000000000000000000000081526004016113dd9190611cdf565b60405180910390fd5b5050565b6113f48282610d6c565b6114198160016000858152602001908152602001600020610e4c90919063ffffffff16565b505050565b6114288282611902565b61144d81600160008581526020019081526020016000206119e390919063ffffffff16565b505050565b600073ffffffffffffffffffffffffffffffffffffffff168273ffffffffffffffffffffffffffffffffffffffff1614156114c2576040517f08c379a00000000000000000000000000000000000000000000000000000000081526004016114b9906127fb565b60405180910390fd5b6114ce600083836116bc565b80600460008282546114e091906121e1565b9250508190555080600260008473ffffffffffffffffffffffffffffffffffffffff1673ffffffffffffffffffffffffffffffffffffffff168152602001908152602001600020600082825461153691906121e1565b925050819055508173ffffffffffffffffffffffffffffffffffffffff16600073ffffffffffffffffffffffffffffffffffffffff167fddf252ad1be2c89b69c2b068fc378daa952ba7f163c4a11628f55a4df523b3ef8360405161159b9190611de4565b60405180910390a36115af600083836116c1565b5050565b60006115c28360000183611a13565b60001c905092915050565b60006115db82600001611a3e565b9050919050565b60006115ee8383611a4f565b61164757826000018290806001815401808255809150506001900390600052602060002001600090919091909150558260000180549050836001016000848152602001908152602001600020819055506001905061164c565b600090505b92915050565b60007f01ffc9a7000000000000000000000000000000000000000000000000000000007bffffffffffffffffffffffffffffffffffffffffffffffffffffffff1916827bffffffffffffffffffffffffffffffffffffffffffffffffffffffff1916149050919050565b505050565b505050565b6060600060028360026116d9919061281b565b6116e391906121e1565b67ffffffffffffffff8111156116fc576116fb612875565b5b6040519080825280601f01601f19166020018201604052801561172e5781602001600182028036833780820191505090505b5090507f300000000000000000000000000000000000000000000000000000000000000081600081518110611766576117656128a4565b5b60200101907effffffffffffffffffffffffffffffffffffffffffffffffffffffffffffff1916908160001a9053507f7800000000000000000000000000000000000000000000000000000000000000816001815181106117ca576117c96128a4565b5b60200101907effffffffffffffffffffffffffffffffffffffffffffffffffffffffffffff1916908160001a9053506000600184600261180a919061281b565b61181491906121e1565b90505b60018111156118b4577f3031323334353637383961626364656600000000000000000000000000000000600f861660108110611856576118556128a4565b5b1a60f81b82828151811061186d5761186c6128a4565b5b60200101907effffffffffffffffffffffffffffffffffffffffffffffffffffffffffffff1916908160001a905350600485901c9450806118ad906128d3565b9050611817565b50600084146118f8576040517f08c379a00000000000000000000000000000000000000000000000000000000081526004016118ef90612949565b60405180910390fd5b8091505092915050565b61190c8282610a35565b156119df57600080600084815260200190815260200160002060000160008373ffffffffffffffffffffffffffffffffffffffff1673ffffffffffffffffffffffffffffffffffffffff16815260200190815260200160002060006101000a81548160ff021916908315150217905550611984610ef6565b73ffffffffffffffffffffffffffffffffffffffff168173ffffffffffffffffffffffffffffffffffffffff16837ff6391f5c32d9c69d2a47ea670b442974b53935d1edc7fd64eb21e047a839171b60405160405180910390a45b5050565b6000611a0b836000018373ffffffffffffffffffffffffffffffffffffffff1660001b611a72565b905092915050565b6000826000018281548110611a2b57611a2a6128a4565b5b9060005260206000200154905092915050565b600081600001805490509050919050565b600080836001016000848152602001908152602001600020541415905092915050565b60008083600101600084815260200190815260200160002054905060008114611b7a576000600182611aa49190612969565b9050600060018660000180549050611abc9190612969565b9050818114611b2b576000866000018281548110611add57611adc6128a4565b5b9060005260206000200154905080876000018481548110611b0157611b006128a4565b5b90600052602060002001819055508387600101600083815260200190815260200160002081905550505b85600001805480611b3f57611b3e61299d565b5b600190038181906000526020600020016000905590558560010160008681526020019081526020016000206000905560019350505050611b80565b60009150505b92915050565b600080fd5b60007fffffffff0000000000000000000000000000000000000000000000000000000082169050919050565b611bc081611b8b565b8114611bcb57600080fd5b50565b600081359050611bdd81611bb7565b92915050565b600060208284031215611bf957611bf8611b86565b5b6000611c0784828501611bce565b91505092915050565b60008115159050919050565b611c2581611c10565b82525050565b6000602082019050611c406000830184611c1c565b92915050565b600081519050919050565b600082825260208201905092915050565b60005b83811015611c80578082015181840152602081019050611c65565b83811115611c8f576000848401525b50505050565b6000601f19601f8301169050919050565b6000611cb182611c46565b611cbb8185611c51565b9350611ccb818560208601611c62565b611cd481611c95565b840191505092915050565b60006020820190508181036000830152611cf98184611ca6565b905092915050565b600073ffffffffffffffffffffffffffffffffffffffff82169050919050565b6000611d2c82611d01565b9050919050565b611d3c81611d21565b8114611d4757600080fd5b50565b600081359050611d5981611d33565b92915050565b6000819050919050565b611d7281611d5f565b8114611d7d57600080fd5b50565b600081359050611d8f81611d69565b92915050565b60008060408385031215611dac57611dab611b86565b5b6000611dba85828601611d4a565b9250506020611dcb85828601611d80565b9150509250929050565b611dde81611d5f565b82525050565b6000602082019050611df96000830184611dd5565b92915050565b600080600060608486031215611e1857611e17611b86565b5b6000611e2686828701611d4a565b9350506020611e3786828701611d4a565b9250506040611e4886828701611d80565b9150509250925092565b6000819050919050565b611e6581611e52565b8114611e7057600080fd5b50565b600081359050611e8281611e5c565b92915050565b600060208284031215611e9e57611e9d611b86565b5b6000611eac84828501611e73565b91505092915050565b611ebe81611e52565b82525050565b6000602082019050611ed96000830184611eb5565b92915050565b60008060408385031215611ef657611ef5611b86565b5b6000611f0485828601611e73565b9250506020611f1585828601611d4a565b9150509250929050565b600060ff82169050919050565b611f3581611f1f565b82525050565b6000602082019050611f506000830184611f2c565b92915050565b600060208284031215611f6c57611f6b611b86565b5b6000611f7a84828501611d4a565b91505092915050565b60008060408385031215611f9a57611f99611b86565b5b6000611fa885828601611e73565b9250506020611fb985828601611d80565b9150509250929050565b611fcc81611d21565b82525050565b6000602082019050611fe76000830184611fc3565b92915050565b6000806040838503121561200457612003611b86565b5b600061201285828601611d4a565b925050602061202385828601611d4a565b9150509250929050565b7f4e487b7100000000000000000000000000000000000000000000000000000000600052602260045260246000fd5b6000600282049050600182168061207457607f821691505b602082108114156120885761208761202d565b5b50919050565b7f45524332303a207472616e7366657220616d6f756e742065786365656473206160008201527f6c6c6f77616e6365000000000000000000000000000000000000000000000000602082015250565b60006120ea602883611c51565b91506120f58261208e565b604082019050919050565b60006020820190508181036000830152612119816120dd565b9050919050565b7f416363657373436f6e74726f6c3a2063616e206f6e6c792072656e6f756e636560008201527f20726f6c657320666f722073656c660000000000000000000000000000000000602082015250565b600061217c602f83611c51565b915061218782612120565b604082019050919050565b600060208201905081810360008301526121ab8161216f565b9050919050565b7f4e487b7100000000000000000000000000000000000000000000000000000000600052601160045260246000fd5b60006121ec82611d5f565b91506121f783611d5f565b9250827fffffffffffffffffffffffffffffffffffffffffffffffffffffffffffffffff0382111561222c5761222b6121b2565b5b828201905092915050565b7f45524332305072657365744d696e7465725061757365723a206d75737420686160008201527f7665206d696e74657220726f6c6520746f206d696e7400000000000000000000602082015250565b6000612293603683611c51565b915061229e82612237565b604082019050919050565b600060208201905081810360008301526122c281612286565b9050919050565b7f45524332304361707065643a2063617020657863656564656400000000000000600082015250565b60006122ff601983611c51565b915061230a826122c9565b602082019050919050565b6000602082019050818103600083015261232e816122f2565b9050919050565b7f45524332303a2064656372656173656420616c6c6f77616e63652062656c6f7760008201527f207a65726f000000000000000000000000000000000000000000000000000000602082015250565b6000612391602583611c51565b915061239c82612335565b604082019050919050565b600060208201905081810360008301526123c081612384565b9050919050565b7f45524332303a20617070726f76652066726f6d20746865207a65726f2061646460008201527f7265737300000000000000000000000000000000000000000000000000000000602082015250565b6000612423602483611c51565b915061242e826123c7565b604082019050919050565b6000602082019050818103600083015261245281612416565b9050919050565b7f45524332303a20617070726f766520746f20746865207a65726f20616464726560008201527f7373000000000000000000000000000000000000000000000000000000000000602082015250565b60006124b5602283611c51565b91506124c082612459565b604082019050919050565b600060208201905081810360008301526124e4816124a8565b9050919050565b7f45524332303a207472616e736665722066726f6d20746865207a65726f20616460008201527f6472657373000000000000000000000000000000000000000000000000000000602082015250565b6000612547602583611c51565b9150612552826124eb565b604082019050919050565b600060208201905081810360008301526125768161253a565b9050919050565b7f45524332303a207472616e7366657220746f20746865207a65726f206164647260008201527f6573730000000000000000000000000000000000000000000000000000000000602082015250565b60006125d9602383611c51565b91506125e48261257d565b604082019050919050565b60006020820190508181036000830152612608816125cc565b9050919050565b7f45524332303a207472616e7366657220616d6f756e742065786365656473206260008201527f616c616e63650000000000000000000000000000000000000000000000000000602082015250565b600061266b602683611c51565b91506126768261260f565b604082019050919050565b6000602082019050818103600083015261269a8161265e565b9050919050565b600081905092915050565b7f416363657373436f6e74726f6c3a206163636f756e7420000000000000000000600082015250565b60006126e26017836126a1565b91506126ed826126ac565b601782019050919050565b600061270382611c46565b61270d81856126a1565b935061271d818560208601611c62565b80840191505092915050565b7f206973206d697373696e6720726f6c6520000000000000000000000000000000600082015250565b600061275f6011836126a1565b915061276a82612729565b601182019050919050565b6000612780826126d5565b915061278c82856126f8565b915061279782612752565b91506127a382846126f8565b91508190509392505050565b7f45524332303a206d696e7420746f20746865207a65726f206164647265737300600082015250565b60006127e5601f83611c51565b91506127f0826127af565b602082019050919050565b60006020820190508181036000830152612814816127d8565b9050919050565b600061282682611d5f565b915061283183611d5f565b9250817fffffffffffffffffffffffffffffffffffffffffffffffffffffffffffffffff048311821515161561286a576128696121b2565b5b828202905092915050565b7f4e487b7100000000000000000000000000000000000000000000000000000000600052604160045260246000fd5b7f4e487b7100000000000000000000000000000000000000000000000000000000600052603260045260246000fd5b60006128de82611d5f565b915060008214156128f2576128f16121b2565b5b600182039050919050565b7f537472696e67733a20686578206c656e67746820696e73756666696369656e74600082015250565b6000612933602083611c51565b915061293e826128fd565b602082019050919050565b6000602082019050818103600083015261296281612926565b9050919050565b600061297482611d5f565b915061297f83611d5f565b925082821015612992576129916121b2565b5b828203905092915050565b7f4e487b7100000000000000000000000000000000000000000000000000000000600052603160045260246000fdfea2646970667358221220aa82dd98a03149c07975489d4f4eea736afa1835666adb9c97d119bc1546e04964736f6c63430008090033a2646970667358221220d7fdd5bb9e01f8c8cee04d24161b3d7ea9c36d215148765851901d5c00548a6b64736f6c63430008090033",
  "immutableReferences": {},
  "source": "// SPDX-License-Identifier: MIT\npragma solidity >=0.8.9;\n\nimport \"./ERC20Token.sol\";\n\ncontract ERC20Factory {\n    event ERC20TokenCreated(address indexed tokenAddress, string symbol, uint256 indexed cap);\n    // event ERC721TokenCreated(address tokenAddress);\n\n    // address [] erc20list;\n\n    function deployNewERC20Token(\n        string calldata name,\n        string calldata symbol,\n        uint256 cap\n    ) public returns (address) {\n        ERC20Token t = new ERC20Token(\n            name,\n            symbol,\n            cap\n        );\n        emit ERC20TokenCreated(address(t), symbol, cap);\n\n        // erc20list.push(address(t));\n\n        return address(t);\n    }\n\n\n\n    function deployNewERC721Token(string memory name, string memory symbol)\n        public\n        returns (address)\n    {\n        // ERC721Token t = new ERC721Token(name, symbol);\n        // emit ERC721TokenCreated(address(t));\n\n        // return address(t);\n    }\n}",
  "sourcePath": "C:\\Users\\RecycleBin\\Documents\\My Projects\\erc20factory\\contracts\\ERC20Factroy.sol",
  "compiler": {
    "name": "solc",
    "version": "0.8.9+commit.e5eed63a.Emscripten.clang"
  },
  "schemaVersion": "3.4.4",
  "updatedAt": "2022-02-12T08:50:52.126Z",
  "networkType": "ethereum",
  "devdoc": {
    "kind": "dev",
    "methods": {},
    "version": 1
  },
  "userdoc": {
    "kind": "user",
    "methods": {},
    "version": 1
  }
}